:100000000C9434000C9446000C9446000C9446006A
:100010000C9446000C9446000C9446000C949B01F2
:100020000C9446000C9446000C9446000C94460038
:100030000C9446000C94E5000C9446000C94460089
:100040000C94CE000C9446000C94E0010C941F021A
:100050000C9446000C9446000C9446000C94460008
:100060000C9446000C94460011241FBECFEFD8E03C
:10007000DEBFCDBF21E0A0E0B1E001C01D92AE38EF
:10008000B207E1F70E9448000C94C7020C940000EC
:10009000CF93DF93CDB7DEB72B970FB6F894DEBFC3
:1000A0000FBECDBF82E084B90E9485010E94C501C8
:1000B0000E94B80078940E9438010E94FC000E94BF
:1000C000C0015C011A861986412C512C3201C12CC9
:1000D000D12C76011E0129E0220E311C9FB6F89426
:1000E0000E94BB018C018A199B09803D9740D0F189
:1000F0000E9438016B017C010E94FC002B013C0135
:10010000580130C00E9481028B8749825A826B82DB
:100110007C82CD82DE82EF82F886CE0101964C0190
:10012000F40181914F010E945C0282149304C1F793
:10013000FB85FF2379F08F2F90E09C01220F331F66
:10014000220F331F820F931F9C01200F311F3A870C
:100150002987299A89859A85801B910B0AF0BECF41
:100160002998BCCF9FBE0E94DD01882399F3CACF96
:10017000109209011092080110920B0110920A01CD
:1001800085B5876085BD81E080936E00E1E8F0E091
:1001900090819760908380936F0008951F920F92D3
:1001A0000FB60F9211248F939F9380910A01909123
:1001B0000B01019690930B0180930A019F918F91FF
:1001C0000F900FBE0F901F9018951F920F920FB6B1
:1001D0000F9211248F939F938091080190910901B0
:1001E000019690930901809308019F918F910F9040
:1001F0000FBE0F901F9018950F931F933FB7F89461
:1002000026B5223068F4A89B0BC080910A0190911A
:100210000B01019690930B0180930A0181E085BB4D
:1002200080910A0190910B01A0E0B0E0BA2FA92FB4
:10023000982F8827822B3FBF4091040150910501E0
:1002400060910601709107018C019D01041B150B43
:10025000260B370B8093040190930501A0930601B0
:10026000B0930701C901B80199271F910F91089513
:10027000CF92DF92EF92FF920F931F932FB7F894D4
:1002800040918400509185004230510568F4B09B44
:100290000BC080910801909109010196909309018A
:1002A0008093080181E086BB80910801909109014B
:1002B000A0E0B0E0DC019927882760E070E06C01E5
:1002C0007D01C42AD52AE62AF72A2FBF40910001D2
:1002D0005091010160910201709103019701860123
:1002E000041B150B260B370BC901B801C092000186
:1002F000D0920101E0920201F09203011F910F914F
:10030000FF90EF90DF90CF900895239A539A82E563
:100310008093B00087E08093B10086E28093B300C1
:1003200083E18093B40082E08093700010920F010B
:1003300010920E0108951F920F920FB60F92112482
:100340008F939F9380910E0190910F01019690934E
:100350000F0180930E0180910C0190910D01059683
:1003600090930D0180930C019F918F910F900FBE80
:100370000F901F90189580910C0190910D01089598
:1003800080910E0190910F01089510922501109215
:10039000240110922601109228011092270189E170
:1003A00090E09093C5008093C40088EB8093C100D7
:1003B00086E08093C200519A0895809126010895A5
:1003C0001F920F920FB60F9211242F933F935F93BA
:1003D0006F937F938F939F93AF93BF93EF93FF930D
:1003E0002091C600809126018431A0F4309124012F
:1003F0008091260190E0830F911D64E170E00E94DE
:100400009F02FC01E05FFE4F2083809126018F5FF9
:10041000809326012B3319F481E080932501FF910D
:10042000EF91BF91AF919F918F917F916F915F916C
:100430003F912F910F900FBE0F901F9018951F9214
:100440000F920FB60F9211245F936F937F938F9348
:100450009F93AF93BF93EF93FF93809127018823DE
:10046000C1F0E0912801F0E0E25CFE4F80818093D2
:10047000C6008091280190E0019660E570E00E943E
:100480009F0280932801809127018150809327014A
:1004900005C0E1ECF0E080818F7D8083FF91EF91DA
:1004A000BF91AF919F918F917F916F915F910F90CD
:1004B0000FBE0F901F901895382F4FB7F89480916A
:1004C00027018035D8F4209128018091270190E000
:1004D000820F911D60E570E00E949F02FC01E25CCA
:1004E000FE4F3083809127018F5F80932701E1ECDD
:1004F000F0E080818062808381E001C080E04FBFB6
:100500000895809126018823B9F0E0912401F0E05C
:10051000E05FFE4F4081809126018150809326014B
:100520002091240130E0C901019664E170E00E944D
:100530009F028093240101C040E0842F089597FB1F
:10054000072E16F4009407D077FD09D00E94B3025D
:1005500007FC05D03EF4909581959F4F08957095C6
:1005600061957F4F0895AA1BBB1B51E107C0AA1FCD
:10057000BB1FA617B70710F0A61BB70B881F991F44
:100580005A95A9F780959095BC01CD010895F894EE
:02059000FFCF9B
:00000001FF
