:100000000C9434000C9446000C9446000C9446006A
:100010000C9446000C9446000C9446000C94C802C4
:100020000C9446000C9446000C9446000C94460038
:100030000C9446000C944B010C9446000C94460022
:100040000C942C010C9446000C9443030C949503DF
:100050000C9446000C9446000C9446000C94460008
:100060000C9446000C94460011241FBEC0E0D4E05E
:10007000DEBFCDBF21E0A0E0B1E001C01D92AC38F1
:10008000B207E1F70E9465000C9482040C94000012
:10009000CF93DF93CDB7DEB7F89481E0DF91CF91B6
:1000A0000895CF93DF9300D0CDB7DEB79A838983CD
:1000B0008FE590E029813A81F9012081FC012083BC
:1000C0000F900F90DF91CF910895CF93DF93CDB72D
:1000D000DEB767970FB6F894DEBF0FBECDBF84E2E0
:1000E00090E0FC0110820E9492020E940F030E9485
:1000F000010178940E9401020E946A010E94E702B5
:100100009A87898701C000008FE590E0FC0180811B
:100110008F870E9448008B8725C00E94E7029E8738
:100120008D872D853E8589859A85A901481B590BA8
:10013000CA01803951E09507A0F00E940102DC015C
:10014000CB0189839A83AB83BC830E946A01DC0163
:10015000CB018D839E83AF83B8878D859E859A87DB
:1001600089871B868B858823C1F6CE010F960E9456
:1001700051000E943A03882331F21C860E94310408
:100180008D819E81AF81B885888B998BAA8BBB8B23
:1001900089819A81AB81BC818C8B9D8BAE8BBF8B0F
:1001A0000FC08C85882F90E09E01205F3F4F820F0B
:1001B000931FFC0180810E94E8038C858F5F8C87F0
:1001C0008C85883070F39FCFCF93DF93CDB7DEB7A8
:1001D000F89481E0DF91CF910895CF93DF9300D021
:1001E000CDB7DEB79A8389838FE590E029813A8184
:1001F000F9012081FC0120830F900F90DF91CF91B6
:100200000895CF93DF93CDB7DEB710920901109216
:10021000080110920B0110920A0185E490E025E498
:1002200030E0F90120812760FC0120838EE690E018
:1002300021E0FC01208381E890E021E830E0F90131
:1002400020812760FC0120838FE690E021E0FC0103
:100250002083DF91CF9108951F920F9200905F004D
:100260000F9211248F939F93CF93DF93CDB7DEB777
:1002700080910A0190910B01019690930B0180935C
:100280000A01DF91CF919F918F910F9000925F00B3
:100290000F901F9018951F920F9200905F000F9281
:1002A00011248F939F93CF93DF93CDB7DEB78091C7
:1002B000080190910901019690930901809308012A
:1002C000DF91CF919F918F910F9000925F000F90DF
:1002D0001F901895EF92FF920F931F93CF93DF9388
:1002E000CDB7DEB72B970FB6F894DEBF0FBECDBFEC
:1002F0008FE590E0FC0180818B870E94E4008D8374
:1003000039C086E490E0FC0180818E838E8182304A
:10031000C0F485E390E0FC018081882F90E081703B
:100320009927009771F080910A0190910B01019635
:1003300090930B0180930A0185E390E021E0FC019A
:10034000208380910A0190910B01CC01A0E0B0E0E4
:100350002227382F492F5A2F8E81882F90E0A0E036
:10036000B0E0822B932BA42BB52B89839A83AB838C
:10037000BC831D828D81882321F6CE010B960E94BD
:10038000ED008091040190910501A0910601B091CA
:10039000070129813A814B815C8179018A01E81A40
:1003A000F90A0A0B1B0BD801C7018F839887A9870D
:1003B000BA878F819885A985BA85BB278F8398874F
:1003C000A987BA8789819A81AB81BC818093040116
:1003D00090930501A0930601B09307018F81988542
:1003E000A985BA85BC01CD012B960FB6F894DEBF66
:1003F0000FBECDBFDF91CF911F910F91FF90EF9076
:100400000895EF92FF920F931F93CF93DF93CDB791
:10041000DEB72C970FB6F894DEBF0FBECDBF8FE5C9
:1004200090E0FC0180818C870E94E4008D833CC0B9
:1004300084E890E0FC01808191819F838E838E818E
:100440009F8182309105C0F486E390E0FC018081B9
:10045000882F90E081709927009771F080910801B2
:10046000909109010196909309018093080186E318
:1004700090E021E0FC012083809108019091090126
:10048000CC01A0E0B0E0AC01332722278E819F8110
:10049000CC01A0E0B0E0822B932BA42BB52B898359
:1004A0009A83AB83BC831D828D81882309F6CE019C
:1004B0000C960E94ED008091000190910101A091A5
:1004C0000201B091030129813A814B815C8179015C
:1004D0008A01E81AF90A0A0B1B0BD801C7018887A1
:1004E0009987AA87BB8789819A81AB81BC818093D8
:1004F000000190930101A0930201B093030188854C
:100500009985AA85BB85BC01CD012C960FB6F894C0
:10051000DEBF0FBECDBFDF91CF911F910F91FF9036
:10052000EF900895CF93DF93CDB7DEB784E290E0EC
:1005300024E230E0F90120812860FC0120838AE276
:1005400090E02AE230E0F90120812860FC0120835C
:1005500080EB90E022E5FC01208381EB90E027E036
:10056000FC01208383EB90E026E2FC01208384EBF6
:1005700090E023E1FC01208380E790E022E0FC0191
:10058000208310920D0110920C01DF91CF910895FC
:100590001F920F9200905F000F9211248F939F93F0
:1005A000CF93DF93CDB7DEB780910C0190910D0111
:1005B000019690930D0180930C01DF91CF919F9153
:1005C0008F910F9000925F000F901F901895CF931E
:1005D000DF93CDB7DEB780910C0190910D01DF91D3
:1005E000CF910895CF93DF93CDB7DEB7F89481E034
:1005F000DF91CF910895CF93DF9300D0CDB7DEB7D1
:100600009A8389838FE590E029813A81F9012081DD
:10061000FC0120830F900F90DF91CF910895CF932D
:10062000DF93CDB7DEB71092230110922201109212
:100630002401109226011092250184EC90E029E11A
:1006400030E0FC013183208381EC90E028EBFC0159
:10065000208382EC90E026E0FC0120838AE290E097
:100660002AE230E0F90120812260FC012083DF9141
:10067000CF910895CF93DF93CDB7DEB7809124015A
:10068000DF91CF9108951F920F9200905F000F921B
:1006900011242F933F935F936F937F938F939F9337
:1006A000AF93BF93EF93FF93CF93DF931F92CDB799
:1006B000DEB786EC90E0FC01808189838091240183
:1006C0008431C8F480912201282F30E080912401E8
:1006D000882F90E0820F931F24E130E0B9010E943F
:1006E0005A04825F9E4F2981FC012083809124015E
:1006F0008F5F8093240189818B3319F481E080938B
:1007000023010F90DF91CF91FF91EF91BF91AF91B6
:100710009F918F917F916F915F913F912F910F905A
:1007200000925F000F901F9018951F920F920090FB
:100730005F000F9211242F933F935F936F937F93EA
:100740008F939F93AF93BF93EF93FF93CF93DF93D9
:10075000CDB7DEB7809125018823F1F086EC90E0DB
:1007600020912601222F30E0245C3E4FF9012081A8
:10077000FC01208380912601882F90E0019620E5DE
:1007800030E0B9010E945A0480932601809125012E
:1007900081508093250109C081EC90E021EC30E08C
:1007A000F90120812F7DFC012083DF91CF91FF9102
:1007B000EF91BF91AF919F918F917F916F915F91D9
:1007C0003F912F910F9000925F000F901F9018950E
:1007D000CF93DF9300D000D0CDB7DEB78C831982E2
:1007E0008FE590E0FC0180818B830E94F2028A8376
:1007F00029C080912501803520F580912601282F80
:1008000030E080912501882F90E0820F931F20E532
:1008100030E0B9010E945A04845C9E4F2C81FC0197
:100820002083809125018F5F8093250181EC90E0EA
:1008300021EC30E0F90120812062FC01208381E07D
:1008400089831A828A818823A1F6CE0103960E94A9
:10085000FB0289810F900F900F900F90DF91CF9145
:100860000895CF93DF931F92CDB7DEB719828091A1
:1008700024018823D1F080912201882F90E0825FAB
:100880009E4FFC0180818983809124018150809357
:10089000240180912201882F90E0019624E130E02C
:1008A000B9010E945A048093220189810F90DF913F
:1008B000CF91089597FB072E16F4009407D077FD8B
:1008C00009D00E946E0407FC05D03EF490958195F6
:1008D0009F4F0895709561957F4F0895AA1BBB1B8C
:1008E00051E107C0AA1FBB1FA617B70710F0A61B30
:1008F000B70B881F991F5A95A9F780959095BC0151
:08090000CD010895F894FFCF2A
:00000001FF
