:100000000C943E000C945B000C945B000C945B0021
:100010000C945B000C945B000C945B000C945B00F4
:100020000C945B000C945B000C945B000C945B00E4
:100030000C945B000C945B000C945B000C944101ED
:100040000C945B000C945B000C945B000C945B00C4
:100050000C94A5020C94E6020C945B000C945B00DB
:100060000C945B000C945B000C945B000C945B00A4
:100070000C945B000C945B000C945B0011241FBE7D
:10008000CFEFD4E0DEBFCDBF11E0A0E0B1E0E4E30C
:10009000FEE002C005900D92AA30B107D9F721E029
:1000A000AAE0B1E001C01D92AA3AB207E1F70E94AE
:1000B000F0040C9418070C94000083E390E09093F4
:1000C000CD008093CC0088E18093C90086E08093C6
:1000D000CA00539A08950E945D0084B1876084B974
:1000E00015B808958F929F92AF92BF92CF92DF92F0
:1000F000EF92FF920F931F93CF93DF93CDB7DEB7AD
:1001000061970FB6F894DEBF0FBECDBF85E090E0DB
:10011000A0E0B0E08A879B87AC87BD878E879F87EA
:10012000A88BB98B0E949A018C01E8ECF0E08081E9
:1001300085FFFDCF8091C80088234CF4AEECB0E081
:10014000E8ECF0E08C91898780818823DCF38BE3F5
:100150008093CE006E012AE0C20ED11C4E0182E1D6
:10016000880E911C0F2EF8ECEF2EF12CF02D0F2E97
:10017000FEECAF2EB12CF02D13C0F7018081882347
:100180003CF00E949A01801B910B843F9140A8F3A0
:10019000F5018081F60181936F01E815F90539F0C9
:1001A0000E949A01801B910B843F914030F30E9482
:1001B0009A01801B910B843F914020F01A861B8688
:1001C0001C861D8688E0FE013A96DE01119601909C
:1001D0000D928A95E1F729813A814B815C816D818D
:1001E0007E818F81988561960FB6F894DEBF0FBE31
:1001F000CDBFDF91CF911F910F91FF90EF90DF90D6
:10020000CF90BF90AF909F908F90089584B18861F8
:1002100084B98AB1806C8AB933EA34BD45E045BD02
:10022000E0EBF0E0308387E08093B10027E127BD69
:1002300028BD2093B3002093B4008AB180638AB9AB
:100240008AEA809380008AE1809381008FE39CE9B1
:10025000909387008093860088EB9BE090938900C1
:100260008093880090938B0080938A0081E0809334
:100270006F008AB1806C8AB9308345BD27BD28BD27
:1002800008951F920F920FB60F9211242F933F9350
:100290004F935F936F937F938F939F93AF93BF938E
:1002A000CF93DF93EF93FF9380911301909114010B
:1002B0004496909314018093130180910801882340
:1002C00031F1C0E0D82F2C2F30E0F901E65FFE4F6E
:1002D0008081823050F0F901E65FFE4F80818150CD
:1002E00080838C2F0E94A9030FC0F901E65FFE4FA7
:1002F0008081813049F4F901E65FFE4F80818150B1
:1003000080838C2F0E94C103CF5FCD17E0F2FF9155
:10031000EF91DF91CF91BF91AF919F918F917F919D
:100320006F915F914F913F912F910F900FBE0F9062
:100330001F901895809113019091140108956055B4
:100340007B4F613C92E1790710F060EC72E1833001
:10035000D1F028F4813049F0823071F00895853071
:10036000E1F0B0F0863009F10895660F672F661F3F
:10037000770B719567BD0895660F672F661F770B22
:10038000719568BD08957093890060938800089501
:1003900070938B0060938A000895660F672F661F25
:1003A000770B71956093B3000895660F672F661FF2
:1003B000770B71956093B4000895CF92DF92EF921E
:1003C000FF92CF936B017C01C62F8827992728EED7
:1003D00033E040E050E00E946705822FCF3F11F0EC
:1003E000C1E0CC0D893028F4E22FF0E0E65FFE4F4B
:1003F000C08380E0CF91FF90EF90DF90CF90089581
:10040000CF92DF92EF92FF92CF93DF936B017C014B
:1004100088B18F7388B928E0C216D104E104F104D1
:1004200050F481E090E00C2C02C0880F991F0A94D0
:10043000E2F782B912C012B888E0C816D104E1040C
:10044000F10439F029E0C216D104E104F10419F0F5
:1004500004C0479A2AC0469A48C085E0C816D1040D
:10046000E104F104E0F460E070E082E00E949F01AA
:1004700084E893E0C89EE001C99ED00DD89ED00DBF
:100480001124BE0181E00E949F0160E070E086E0DF
:100490000E949F01BE0185E00E949F0126C029E0C5
:1004A000C216D104E104F10400F560E070E081E0DF
:1004B0000E949F0124E833E0C29EC001C39E900DBC
:1004C000D29E900D11247C0120E1E21A2EE0F20A66
:1004D000B70182E00E949F0160E070E085E00E9429
:1004E0009F01B70186E00E949F0180E0DF91CF91DC
:1004F000FF90EF90DF90CF90089560E070E081E092
:100500000E949F0160E070E082E00E949F0160E035
:1005100070E085E00E949F0160E070E086E00E944C
:100520009F0112B888B18F7388B980E00895660F73
:10053000771F83E00E949F0180E00895660F771F78
:1005400084E00E949F0180E008951F920F920FB6F1
:100550000F9211242F933F935F936F937F938F9309
:100560009F93AF93BF93EF93FF932091C600809129
:100570002B018431A0F43091290180912B0190E06E
:10058000830F911D64E170E00E945305FC01EB5E56
:10059000FE4F208380912B018F5F80932B012B33A3
:1005A00029F480912A018F5F80932A01FF91EF91B6
:1005B000BF91AF919F918F917F916F915F913F918B
:1005C0002F910F900FBE0F901F9018951F920F92B2
:1005D0000FB60F9211245F936F937F938F939F9326
:1005E000AF93BF93EF93FF9380912C018823C1F0C9
:1005F000E0912D01F0E0E85AFE4F80818093C60023
:1006000080912D0190E0019660E570E00E94530515
:1006100080932D0180912C01815080932C0105C085
:10062000E1ECF0E080818F7D8083FF91EF91BF91BD
:10063000AF919F918F917F916F915F910F900FBEBE
:100640000F901F901895E0ECF0E0908195FFFDCFA2
:100650008093C60081E00895CF93DF93EC018881F9
:10066000882349F021960E942303882331F0899141
:100670008111F9CF04C081E003C080E001C081E0B6
:10068000DF91CF910895CF93DF93CDB7DEB72C974D
:100690000FB6F894DEBF0FBECDBF2AE0AE014F5FAC
:1006A0005F4F0E94B9060E942C032C960FB6F89457
:1006B000DEBF0FBECDBFDF91CF9108953FB7F89455
:1006C00080912B018823B1F0E0912901F0E0EB5EED
:1006D000FE4F208190912B01915090932B0180919E
:1006E000290190E0019664E170E00E945305809337
:1006F000290101C020E03FBF822F08950F931F936F
:10070000CF93DF93082F192FC82FD92F0E945E0394
:1007100089939E018B3311F08111F8CFF901319744
:1007200010829FB7F8948B3351F480912A011816E8
:1007300034F480912A01815080932A0102C01092E2
:100740002A019FBF802F912FDF91CF911F910F9191
:100750000895883068F442B121E030E0B90102C068
:10076000660F771F8A95E2F7CB01842B82B9089533
:10077000883019F0893019F00895479A0895469AFB
:100780000895883070F442B121E030E0B90102C030
:10079000660F771F8A95E2F7CB018095842382B993
:1007A0000895883019F0893019F008954798089510
:1007B0004698089583E780932E0185E680932F0164
:1007C0004CE6409330011092310121E02093320138
:1007D00080E092E0909334018093330183E680932C
:1007E0003501409336018FE680933701109238012E
:1007F000109239018DE792E090933B0180933A018A
:1008000030E730933C015DE650933D0186E78093ED
:100810003E0110923F012093400187E992E09093BE
:10082000420180934101309343015093440161E6BA
:10083000609345011092460120934701909349012E
:100840008093480130934A0150934B0182E6809394
:100850004C0110924D0120934E018EE992E090934D
:10086000500180934F013093510185E780935201ED
:100870004093530110925401209355018DED91E066
:10088000909357018093560108950E94DA031092C5
:100890002A011092290110922B0110922D01109221
:1008A0002C0183E390E09093C5008093C40088EB13
:1008B0008093C10086E08093C200519A12B88FEFF6
:1008C00081B980EC87B908954F925F926F927F92C1
:1008D000AF92BF92CF92DF92EF92FF920F931F934E
:1008E000CF93DF93CDB7DEB7C055D1090FB6F894DB
:1008F000DEBF0FBECDBFCE0101960E947E03FE017A
:1009000031968F0181918032E1F38D30D1F38A30BD
:10091000C1F30F2EF2E3EF2EF1E0FF2EF02D0F2E9C
:10092000FCE5AF2EF1E0BF2EF02D412C512C320111
:1009300028C0F60132979081D80112968C919817B1
:1009400089F119C08F0181918032E1F38D30D1F3AB
:100950008A30C1F34AE050E060E070E0C8010E94D4
:100960009D052B013C01D6011196ED91FC9112974A
:10097000C301B2010995B7E0EB0EF11CEA14FB04C8
:10098000C9F06701F70134979081F80180819813CD
:10099000F2CFF70133979081D80111968C91981777
:1009A00041F2E9CF0D5F1F4FF60180818130D9F60A
:1009B000F801C8CFC05BDF4F0FB6F894DEBF0FBEA3
:1009C000CDBFDF91CF911F910F91FF90EF90DF90FE
:1009D000CF90BF90AF907F906F905F904F900895B1
:1009E000CF93DF93CDB7DEB728970FB6F894DEBF6D
:1009F0000FBECDBF0E9445040E946B000E940601FD
:100A000078940E949A016C0180910001877085B9E9
:100A10000F2EF0E0AF2EF1E0BF2EF02D0F2EF8E0FC
:100A2000EF2EF1E0FF2EF02D02C00E9464048091B1
:100A30002A018111FACF0E949A018C199D09883BE5
:100A40009B40A8F30E949A016C018501F8018191F5
:100A50008F01877085B90E94720029833A834B8386
:100A60005C836D837E838F8398874D805E806F80EB
:100A7000788469817A818B819C810E94430380E222
:100A80000E942303C301B2010E94430380E20E943B
:100A900023030E151F05D1F68DE00E9423038AE083
:100AA0000E942303C4CF97FB072E16F4009407D0AF
:100AB00077FD09D00E94890507FC05D03EF490958A
:100AC00081959F4F0895709561957F4F0895A1E29C
:100AD0001A2EAA1BBB1BFD010DC0AA1FBB1FEE1FB8
:100AE000FF1FA217B307E407F50720F0A21BB30B03
:100AF000E40BF50B661F771F881F991F1A9469F77F
:100B000060957095809590959B01AC01BD01CF01DA
:100B10000895AA1BBB1B51E107C0AA1FBB1FA61744
:100B2000B70710F0A61BB70B881F991F5A95A9F796
:100B300080959095BC01CD0108952F923F925F92D0
:100B40006F927F928F929F92AF92BF92CF92DF92DD
:100B5000EF92FF920F931F93CF93DF938B01EA01E4
:100B60006115710521F0DB018C9311969C93209700
:100B700039F09E01225031092332310508F0D8C0E6
:100B80007C016701BFEFCB1ADB0A5601F7016080D9
:100B9000862D90E00E94B106892B11F07601F1CFED
:100BA000FDE26F120AC0570182E0A80EB11CD70106
:100BB00011966C90772473940BC0BBE26B1207C044
:100BC0005701E2E0AE0EB11CD70111966C90712C6A
:100BD000CE018F7E892B89F4B0E36B1237C0F5010B
:100BE00080818F7D8835D1F46180F2E0AF0EB11C39
:100BF000872D8260782EC0E1D0E0CA30D10551F156
:100C0000C031D10521F0C830D10599F409C0CC24F8
:100C1000CA94DC2CEC2CAFE0FA2E22C0209769F7A6
:100C2000C8E0D0E0CC24CA94DC2CEC2CFFE1FF2EF1
:100C300017C06FEF7FEFCB019E01442737FD409532
:100C4000542F0E94670569017A010AC02097A9F60E
:100C5000CAE0D0E0E9E9CE2EDC2CEC2CE9E1FE2E56
:100C6000F50160E020E030E0A9014E01AA2497FCE4
:100C7000A094BA2C1F0170ED572E560CA9E0A515B3
:100C800070F48FEB860D8A3118F499EC592E06C05A
:100C90008FE9860D8A3148F589EA582E560C852D44
:100CA00090E08C179D070CF56F3FD9F0C216D30664
:100CB000E406F50698F0C501B4010E94EE069B011A
:100CC000AC01852D90E0A0E0B0E0280F391F4A1F4D
:100CD0005B1F281739074A075B0710F46FEF01C045
:100CE00061E03196D1016C90C5CF0115110551F02D
:100CF000662311F0319703C071FE04C03297D8010A
:100D0000ED93FC9370FE07C050954095309521956A
:100D10003F4F4F4F5F4F67FF10C082E290E09093CC
:100D2000A9018093A8016FEF7FEF8FEF9FEF07C0BE
:100D300060E070E080E090E002C0B901CA01DF919C
:100D4000CF911F910F91FF90EF90DF90CF90BF90C8
:100D5000AF909F908F907F906F905F903F902F907B
:100D60000895911128C0803219F089508550D0F72C
:100D70000895BB27FA01A62F621771058105910519
:100D8000330B30FB66F0AA27660F771F881F991F69
:100D9000AA1FA21710F0A21B63953850A9F7A05DF7
:100DA000AA3308F0A95DA19336F7B111B19310826F
:100DB000CA010C94DE06992788270895DC01FC01FE
:100DC000672F71917723E1F7329704C07C916D937F
:100DD00070836291AE17BF07C8F30895DB018F934C
:100DE0009F930E94FE06BF91AF91A29F800D911D1F
:100DF000A39F900DB29F900D112408950E940907A2
:100E0000A59F900DB49F900DA49F800D911D11245E
:100E10000895A29FB001B39FC001A39F700D811DD3
:100E20001124911DB29F700D811D1124911D0895F3
:040E3000F894FFCF64
:0A0E3400000102030405060709008F
:00000001FF
