:100000000C943E000C945B000C945B000C945B0021
:100010000C945B000C945B000C945B000C945B00F4
:100020000C945B000C945B000C945B000C945B00E4
:100030000C945B000C945B000C945B000C94F80136
:100040000C945B000C945B000C945B000C945B00C4
:100050000C94F7020C944B030C945B000C945B0023
:100060000C945B000C945B000C945B000C945B00A4
:100070000C945B000C945B000C945B0011241FBE7D
:10008000CFEFD4E0DEBFCDBF11E0A0E0B1E0E0ED06
:10009000F2E102C005900D92A830B107D9F721E036
:1000A000A8E0B1E001C01D92A839B207E1F70E94B3
:1000B000E8060C9466090C940000CF93DF93CDB74B
:1000C000DEB70E94730084E290E024E230E0F901A0
:1000D00020812760FC01208385E290E0FC011082F2
:1000E000DF91CF910895CF93DF93CDB7DEB78CEC3E
:1000F00090E023E330E0FC013183208389EC90E041
:1001000028E1FC0120838AEC90E026E0FC012083BA
:100110008AE290E02AE230E0F90120812860FC01C7
:100120002083DF91CF9108952F923F924F925F925B
:100130006F927F928F929F92AF92BF92CF92DF92F7
:10014000EF92FF920F931F93CF93DF93CDB7DEB75C
:1001500064970FB6F894DEBF0FBECDBF85E090E088
:10016000A0E0B0E08D879E87AF87B88B85E090E0F8
:10017000A0E0B0E0898B9A8BAB8BBC8B0E941702FE
:100180009B838A83000088EC90E0FC018081882FAB
:1001900090E0807299270097B1F305C08EEC90E053
:1001A000FC0180818C8788EC90E0FC0180818823B1
:1001B000ACF38EEC90E02BE3FC012083198224C089
:1001C000000088EC90E0FC018081882364F00E94AC
:1001D00017029C018A819B81A901481B590BCA0106
:1001E0008436910570F38981882F90E02EEC30E001
:1001F000F90140819E01235F3F4F820F931FFC0155
:10020000408389818F5F89838981883060F40E946F
:1002100017029C018A819B81A901481B590BCA01C5
:100220008436910568F20E9417029C018A819B81A5
:10023000F901E81BF90BCF018436910520F01D86EA
:100240001E861F86188A88E0FE013D96DE01149600
:1002500001900D928A95E1F770E07C8160E06D81FC
:1002600050E05E8140E04F8130E0388520E0298514
:1002700090E09A8580E08B85272E362E452E542ED1
:10028000632E722E892E982EA22CB32CC42CD52C22
:10029000E62CF72C082D192D2A2D3B2D4C2D5D2DEC
:1002A0006E2D7F2D802F912F64960FB6F894DEBFB0
:1002B0000FBECDBFDF91CF911F910F91FF90EF90B7
:1002C000DF90CF90BF90AF909F908F907F906F9076
:1002D0005F904F903F902F900895CF93DF93CDB7CD
:1002E000DEB784E290E024E230E0F9012081286169
:1002F000FC0120838AE290E02AE230E0F9012081CB
:10030000206CFC01208384E490E023EAFC0120833C
:1003100085E490E025E0FC01208380EB90E023EA77
:10032000FC01208381EB90E027E0FC01208387E43F
:1003300090E027E1FC01208388E490E027E1FC01C4
:10034000208383EB90E027E1FC01208384EB90E0A5
:1003500027E1FC0120838AE290E02AE230E0F90103
:1003600020812063FC01208380E890E02AEAFC01E0
:10037000208381E890E02AE1FC01208386E890E078
:100380002FE33CE9FC013183208388E890E028EBEF
:100390003BE0FC01318320838AE890E028EB3BE0DE
:1003A000FC01318320838FE690E021E0FC01208373
:1003B0008AE290E02AE230E0F9012081206CFC0121
:1003C000208380EB90E023EAFC01208385E490E029
:1003D00025E0FC01208387E490E027E1FC012083F5
:1003E00088E490E027E1FC012083DF91CF9108951C
:1003F0001F920F9200905F000F9211248F939F9392
:10040000CF93DF93CDB7DEB78091080190910901BA
:1004100044969093090180930801DF91CF919F91B9
:100420008F910F9000925F000F901F901895CF93BF
:10043000DF93CDB7DEB78091080190910901DF917C
:10044000CF910895CF93DF9300D01F92CDB7DEB741
:1004500089837B836A838A819B8180559B4F9B83A1
:100460008A838A819B81813C22E1920720F080EC83
:1004700092E19B838A838981882F90E08330910564
:1004800061F1843091053CF48130910571F0823046
:100490009105B9F04AC08530910579F18530910513
:1004A00024F186309105A9F140C087E490E02A81CB
:1004B0003B81220F232F221F330B3195FC01208318
:1004C00034C088E490E02A813B81220F232F221F31
:1004D000330B3195FC01208328C088E890E02A8105
:1004E0003B81FC013183208320C08AE890E02A818F
:1004F0003B81FC013183208318C083EB90E02A818B
:100500003B81220F232F221F330B3195FC012083C7
:100510000CC084EB90E02A813B81220F232F221F05
:10052000330B3195FC01208300000F900F900F904A
:10053000DF91CF910895CF93DF93CDB7DEB7F894D5
:1005400081E0DF91CF910895CF93DF9300D0CDB7B5
:10055000DEB79A8389838FE590E029813A81F9019A
:100560002081FC0120830F900F90DF91CF9108959F
:10057000CF93DF93CDB7DEB70E94B60510921F016F
:1005800010921E011092200110922201109221015E
:1005900084EC90E023E330E0FC013183208381ECA4
:1005A00090E028EBFC01208382EC90E026E0FC0147
:1005B00020838AE290E02AE230E0F9012081226083
:1005C000FC01208382E290E022E230E0F901208108
:1005D000207FFC01208381E290E021E230E0F901FC
:1005E0002081206FFC012083DF91CF9108951F921D
:1005F0000F9200905F000F9211242F933F935F930F
:100600006F937F938F939F93AF93BF93EF93FF93DA
:10061000CF93DF931F92CDB7DEB786EC90E0FC015D
:1006200080818983809120018431C8F480911E01EA
:10063000282F30E080912001882F90E0820F931FB7
:1006400024E130E0B9010E948A07865F9E4F29812C
:10065000FC012083809120018F5F8093200189819C
:100660008B3329F480911F018F5F80931F010F90BE
:10067000DF91CF91FF91EF91BF91AF919F918F91BA
:100680007F916F915F913F912F910F9000925F004A
:100690000F901F9018951F920F9200905F000F927D
:1006A00011242F933F935F936F937F938F939F9327
:1006B000AF93BF93EF93FF93CF93DF93CDB7DEB7A5
:1006C000809121018823F1F086EC90E020912201B5
:1006D000222F30E02A5B3E4FF9012081FC0120836C
:1006E00080912201882F90E0019620E530E0B90149
:1006F0000E948A078093220180912101815080937A
:10070000210109C081EC90E021EC30E0F901208169
:100710002F7DFC012083DF91CF91FF91EF91BF915D
:10072000AF919F918F917F916F915F913F912F91A9
:100730000F9000925F000F901F901895CF93DF935A
:1007400000D0CDB7DEB78A831982000080EC90E03C
:10075000FC018081882F90E0807299270097B1F387
:1007600086EC90E02A81FC01208381E089838981E5
:100770000F900F90DF91CF910895CF93DF9300D02A
:10078000CDB7DEB79A8389830FC089819A81FC0136
:1007900080810E949E03882311F480E00CC089812F
:1007A0009A8101969A83898389819A81FC0180814B
:1007B000882359F781E00F900F90DF91CF91089532
:1007C000CF93DF93CDB7DEB760970FB6F894DEBF57
:1007D0000FBECDBF6D877E878F87988B8D859E8559
:1007E000AF85B8892AE030E0AE014F5F5F4FBC01B2
:1007F000CD010E94AE080E94BD0360960FB6F8942A
:10080000DEBF0FBECDBFDF91CF910895CF93DF93B1
:1008100000D01F92CDB7DEB719828FE590E0FC01C2
:1008200080818B830E949B028A831FC0809120015C
:100830008823D1F080911E01882F90E0865F9E4F23
:10084000FC01808189838091200181508093200167
:1008500080911E01882F90E0019624E130E0B901DB
:100860000E948A0780931E011A828A818823F1F6EA
:10087000CE0103960E94A40289810F900F900F90E1
:10088000DF91CF910895CF93DF93CDB7DEB7279750
:100890000FB6F894DEBF0FBECDBF9F838E838E81CF
:1008A0009F819B838A830E9406048C838E819F8113
:1008B0002C81FC0120838E819F8101969F838E83F2
:1008C0008C818B3319F08C81882369F78E819F810D
:1008D00001979F838E838E819F81FC0110828FE51B
:1008E00090E0FC0180818D830E949B02898310C06F
:1008F0008C818B3351F480911F01181634F4809150
:100900001F01815080931F0102C010921F011982A4
:100910008981882369F7CE0105960E94A4028A8105
:100920009B8127960FB6F894DEBF0FBECDBFDF9137
:10093000CF910895CF93DF9300D000D0CDB7DEB72D
:1009400069837A838B839C8389819A81AB81BC8103
:100950000097A105B10599F482E290E022E230E02F
:10096000F90120812F7CFC01208382E290E022E2C9
:1009700030E0F9012081206CFC01208325C08981B1
:100980009A81AB81BC8181309105A105B10599F4B3
:1009900082E290E022E230E0F90120812F73FC0135
:1009A000208382E290E022E230E0F901208120639E
:1009B000FC01208309C082E290E022E230E0F901EC
:1009C00020812F70FC01208389819A81AB81BC81B9
:1009D00085309105A105B10548F560E070E082E041
:1009E0000E94220249815A8124E833E0429FC001DB
:1009F000439F900D529F900D1124BC0181E00E94F5
:100A0000220260E070E086E00E94220249815A8161
:100A100024E833E0429FC001439F900D529F900D08
:100A20001124BC0185E00E94220235C089819A818F
:100A3000AB81BC8189309105A105B10560F560E00D
:100A400070E081E00E94220249815A8124E833E06B
:100A5000429FC001439F900D529F900D11248051E1
:100A60009E40BC0182E00E94220260E070E085E0CE
:100A70000E94220249815A8124E833E0429FC0014A
:100A8000439F900D529F900D112480519E40BC01B8
:100A900086E00E94220280E00F900F900F900F904E
:100AA000DF91CF910895CF93DF9300D000D0CDB7E1
:100AB000DEB769837A838B839C8360E070E081E09A
:100AC0000E94220260E070E082E00E94220260E068
:100AD00070E085E00E94220260E070E086E00E9403
:100AE000220282E290E022E230E0F90120812F70C0
:100AF000FC01208380E00F900F900F900F90DF910A
:100B0000CF910895CF93DF9300D000D0CDB7DEB75B
:100B100069837A838B839C8389819A81880F991F4B
:100B2000BC0183E00E94220280E00F900F900F90A2
:100B30000F90DF91CF910895CF93DF9300D000D035
:100B4000CDB7DEB769837A838B839C8389819A8151
:100B5000880F991FBC0184E00E94220280E00F9060
:100B60000F900F900F90DF91CF910895CF93DF9367
:100B7000CDB7DEB783E78093230185E68093240118
:100B80008CE6809325011092260181E08093270155
:100B90008AE994E0909329018093280183E6809369
:100BA0002A018CE680932B018FE680932C01109212
:100BB0002D0110922E0183E595E0909330018093F2
:100BC0002F0180E7809331018DE68093320186E723
:100BD000809333011092340181E08093350182E8E3
:100BE00095E0909337018093360180E78093380138
:100BF0008DE68093390181E680933A0110923B01A2
:100C000081E080933C0182E895E090933E018093DF
:100C10003D0180E780933F018DE68093400182E6AD
:100C2000809341011092420181E0809343018CE95D
:100C300095E09093450180934401DF91CF91089511
:100C4000CF93DF93CDB7DEB7C955D1090FB6F8946E
:100C5000DEBF0FBECDBF1A821B821C821D82CE0159
:100C60000A960E944304CE010A969F838E8305C094
:100C70008E819F8101969F838E838E819F81FC014F
:100C800080818032A9F38E819F81FC0180818D302B
:100C900079F38E819F81FC0180818A3049F3188627
:100CA00089C081E08983198625C08885282F30E096
:100CB0008985482F50E0C901880F991F880F991F17
:100CC000880F991F821B930B840F951F8D5D9E4F7C
:100CD000FC0140818985882F90E02E813F81820F21
:100CE000931FFC018081481711F0198206C0898585
:100CF0008F5F898789858330C0F28981882309F4D1
:100D000056C08E819F8103969F838E838885282F6E
:100D100030E0C901880F991F880F991F880F991F0C
:100D2000821B930B895D9E4FFC018081813031F5E0
:100D300005C08E819F8101969F838E838E819F81C6
:100D4000FC0180818032A9F38E819F81FC0180812A
:100D50008D3079F38E819F81FC0180818A3049F347
:100D60008E819F814AE050E060E070E00E94B2070F
:100D7000DC01CB018A839B83AC83BD838885282FCC
:100D800030E0C901880F991F880F991F880F991F9C
:100D9000821B930B885D9E4FFC01208131818A81EB
:100DA0009B81AC81BD81BC01CD01F901099588858C
:100DB0008F5F88878885853008F473CFC75ADF4FE7
:100DC0000FB6F894DEBF0FBECDBFDF91CF9108956F
:100DD000AF92BF92CF92DF92EF92FF920F931F9349
:100DE000CF93DF93CDB7DEB76B970FB6F894DEBF26
:100DF0000FBECDBF19820E94B8020E945D000E9402
:100E00006D0178940E9417029B838A8385E290E0AB
:100E10002981222F30E020503F4FF9012081277097
:100E2000FC01208303C00E94200601C000008091C5
:100E30001F018823C1F70E9417029C018A819B81B0
:100E4000A901481B590BCA01883B5BE0950770F369
:100E50000E9417029B838A83198250C085E290E02A
:100E60002981222F30E020503F4FF9012081277047
:100E7000FC01208389818F5F89830E949400A22EC8
:100E8000B32EC42ED52EE62EF72E082F192FAC8A9E
:100E9000BD8ACE8ADF8AE88EF98E0A8F1B8F88E0A2
:100EA000FE017496DE011C9601900D928A95E1F781
:100EB0008C859D85AE85BF858C839D83AE83BF83E6
:100EC00088899989AA89BB8988879987AA87BB87D6
:100ED0008C819D81AE81BF81BC01CD010E94E00368
:100EE00080E20E949E0388859985AA85BB85BC0106
:100EF000CD010E94E00380E20E949E038981883038
:100F000008F4ACCF8DE00E949E038AE00E949E030D
:100F100000008CCF97FB072E16F4009407D077FDC6
:100F200009D00E949E0707FC05D03EF4909581955C
:100F30009F4F0895709561957F4F0895AA1BBB1B25
:100F400051E107C0AA1FBB1FA617B70710F0A61BC9
:100F5000B70B881F991F5A95A9F780959095BC01EA
:100F6000CD010895A0E0B0E0E8EBF7E00C9425098E
:100F70005B01EA016115710519F0FB018083918322
:100F8000209739F09E01225031092332310508F0B3
:100F9000C1C07C01F70191907F018F01892D90E004
:100FA0000E94A608892BB1F7FDE29F1206C0F70147
:100FB00091908F018824839407C0FBE29F1203C0A5
:100FC000F70191908F01812C209709F4ADC0C031B9
:100FD000D10581F4B0C0F8018081883719F08835D7
:100FE00009F09CC0F80191800E5F1F4FF2E08F2A3C
:100FF000C0E1D0E0CA30D10521F1C031D10521F0E6
:10100000C830D10589F407C0CC24CA94DC2CEC2C60
:101010003FE0F32E1CC0C8E0D0E0CC24CA94DC2C06
:10102000EC2C2FE1F22E13C09E01442737FD409592
:10103000542F6FEF7FEFCB010E94F60869017A0110
:1010400006C099E9C92EDC2CEC2C99E1F92E60E060
:1010500020E030E0A9012E01662457FC6094762C34
:10106000E92DE053EA3060F0892D81548A3110F483
:10107000E75006C0892D81568A3140F5E92DE755A4
:101080008E2F90E08C179D070CF56F3FD9F0C2169C
:10109000D306E406F50698F0C301B2010E94E60803
:1010A0009B01AC018E2F90E0A0E0B0E0280F391F2B
:1010B0004A1F5B1F281739074A075B0710F46FEFB9
:1010C00001C061E0F80191908F01CACFA114B10471
:1010D00061F0662319F00150110904C081FE05C0BA
:1010E00002501109F5011183008380FE07C050955D
:1010F0004095309521953F4F4F4F5F4F67FF1FC081
:1011000082E290E090939701809396012FEF3FEF5A
:10111000A90115C020E030E0A90111C080E3982E9C
:10112000209709F478CF66CFF0E39F1609F453CFE8
:10113000CAE0D0E086CF80E398125CCF4CCFB901F3
:10114000CA01CDB7DEB7E0E10C94410991112BC083
:10115000803219F089508550D0F70895FA01CF9365
:10116000FF93EF932230CCF02532BCF4C22F2C2F0A
:10117000332744275527FF93EF930E94F608EF91FA
:10118000FF91605D6A330CF0695D6193B901CA013A
:10119000605070408040904051F710828F919F9135
:1011A000CF910C94D608992788270895DC01FC017B
:1011B000672F71917723E1F7329704C07C916D938B
:1011C00070836291AE17BF07C8F30895DB018F9358
:1011D0009F930E941809BF91AF91A29F800D911D0E
:1011E000A39F900DB29F900D11240895A1E21A2E95
:1011F000AA1BBB1BFD010DC0AA1FBB1FEE1FFF1FBB
:10120000A217B307E407F50720F0A21BB30BE40B0A
:10121000F50B661F771F881F991F1A9469F7609551
:101220007095809590959B01AC01BD01CF0108950B
:101230000E945A09A59F900DB49F900DA49F800D08
:10124000911D112408952F923F924F925F926F92B9
:101250007F928F929F92AF92BF92CF92DF92EF9246
:10126000FF920F931F93CF93DF93CDB7DEB7CA1BC7
:10127000DB0B0FB6F894DEBF0FBECDBF09942A88F2
:10128000398848885F846E847D848C849B84AA849A
:10129000B984C884DF80EE80FD800C811B81AA8127
:1012A000B981CE0FD11D0FB6F894DEBF0FBECDBFF2
:1012B000ED010895A29FB001B39FC001A39F01D08B
:1012C000B29F700D811D1124911D0895F894FFCFD8
:0812D0000001020304050607FA
:00000001FF
